:100000000C945C050C94E8250C94C0250C94840594
:100010000C9484050C9484050C9484050C9484053C
:100020000C9484050C9484050C9484050C9484052C
:100030000C9484050C9484050C9484050C9484051C
:100040000C9457240C9484050C9425240C94FF23C1
:100050000C9484050C9484050C9484050C948405FC
:100060000C94A1240C948405000103070F1F3F7F0B
:100070000080C0E0F0F8FCFE00000000003E5B4F96
:100080005B3E3E6B4F6B3E1C3E7C3E1C183C7E3CF8
:10009000181C577D571C1C5E7F5E1C00183C180006
:1000A000FFE7C3E7FF0018241800FFE7DBE7FF3096
:1000B000483A060E2629792926407F050507407F04
:1000C00005253F5A3CE73C5A7F3E1C1C08081C1C77
:1000D0003E7F14227F22145F5F005F5F06097F016D
:1000E0007F006689956A606060606094A2FFA29458
:1000F00008047E040810207E201008082A1C080826
:100100001C2A08081E101010100C1E0C1E0C303873
:100110003E3830060E3E0E06000000000000005F74
:1001200000000007000700147F147F14242A7F2A90
:100130001223130864623649562050000807030052
:10014000001C2241000041221C002A1C7F1C2A089E
:10015000083E080800807030000808080808000001
:1001600060600020100804023E5149453E00427F75
:10017000400072494949462141494D331814127FC4
:100180001027454545393C4A494931412111090764
:100190003649494936464949291E000014000000E5
:1001A00040340000000814224114141414140041B7
:1001B00022140802015909063E415D594E7C121174
:1001C000127C7F494949363E414141227F414141AC
:1001D0003E7F494949417F090909013E4141517327
:1001E0007F0808087F00417F41002040413F017F98
:1001F000081422417F404040407F021C027F7F0460
:1002000008107F3E4141413E7F090909063E4151A8
:10021000215E7F09192946264949493203017F0198
:10022000033F4040403F1F2040201F3F4038403F99
:10023000631408146303047804036159494D4300AF
:100240007F4141410204081020004141417F0402E6
:10025000010204404040404000030708002054547D
:1002600078407F284444383844444428384444285B
:100270007F385454541800087E090218A4A49C78AE
:100280007F0804047800447D40002040403D007F0A
:100290001028440000417F40007C047804787C08EA
:1002A0000404783844444438FC18242418182424BE
:1002B00018FC7C08040408485454542404043F44A3
:1002C000243C4040207C1C2040201C3C4030403CD2
:1002D00044281028444C9090907C4464544C440032
:1002E0000836410000007700000041360800020196
:1002F0000204023C2623263C1EA1A161123A404082
:10030000207A3854545559215555794122545478FE
:1003100042215554784020545579400C1E52721297
:100320003955555559395454545939555454580020
:1003300000457C410002457D420001457C407D1224
:1003400011127DF0282528F07C5455450020545486
:100350007C547C0A097F4932494949323A44444431
:100360003A324A4848303A4141217A3A424020786C
:10037000009DA0A07D3D4242423D3D4040403D3C6D
:1003800024FF2424487E4943662B2FFC2F2BFF0992
:1003900029F620C0887E0903205454794100004486
:1003A0007D413048484A32384040227A007A0A0A71
:1003B000727D0D19317D2629292F282629292926E4
:1003C00030484D4020380808080808080808382F29
:1003D00010C8ACBA2F102834FA00007B00000814B3
:1003E0002A142222142A14085500550055AA55AA89
:1003F00055AAFF55FF55FF000000FF00101010FF29
:1004000000141414FF001010FF00FF1010F010F083
:10041000141414FC001414F700FF0000FF00FF1474
:1004200014F404FC141417101F10101F101F1414C0
:10043000141F00101010F0000000001F101010100A
:100440001F10101010F010000000FF1010101010FE
:1004500010101010FF10000000FF140000FF00FF3C
:1004600000001F10170000FC04F4141417101714D8
:1004700014F404F40000FF00F714141414141414FA
:10048000F700F7141414171410101F101F1414146D
:10049000F4141010F010F000001F101F0000001FD7
:1004A00014000000FC140000F010F01010FF10FF0A
:1004B000141414FF141010101F00000000F010FF9F
:1004C000FFFFFFFFF0F0F0F0F0FFFFFF0000000083
:1004D00000FFFF0F0F0F0F0F3844443844FC4A4A07
:1004E0004A347E02020606027E027E0263554941BC
:1004F000633844443C04407E201E2006027E0202F3
:1005000099A5E7A5991C2A492A1C4C7201724C3006
:100510004A4D4D303048784830BC625A463D3E49DD
:100520004949007E0101017E2A2A2A2A2A44445F81
:10053000444440514A444040444A51400000FF0175
:1005400003E080FF000008086B6B08361236243683
:10055000060F090F060000181800000010100030E8
:1005600040FF0101001F01011E00191D1712003C70
:100570003C3C3C0000000000005EBCE2613FDD83CB
:10058000C29C7E20A3FD1F41009D23BE46DB65F873
:100590008C11AF32CA57E974000000080002010054
:1005A000000304070000000000000000000000003D
:1005B000240027002A00DB40A4A62EAFDA0281DA4D
:1005C0001281DA02818F2000A1C8D300408DAED500
:1005D00080A800000000250028002B00000060001B
:1005E00000000000000000000000000000E000002B
:1005F000000000000000000000000001E00000001A
:100600000000000000000000000001F000000000F9
:1006100000000000000000000003F00000000000E7
:10062000000000000000000007F0000000000000D3
:100630000000000000000007F800000000000000BB
:100640000000000000000FF800000003C0007E0062
:100650000001E0007F0FF800000003C000FE000072
:1006600001E000FFEFF800000003C000FE00000101
:10067000E000FFFFF800000003C000F00000000FE2
:10068000007FFE7FC0000003C000F00000000F00EC
:100690003FFE7FF83FF1FBCFFCFEF3BC3DEFE01FD8
:1006A000FE7FFF7FFBFFDFFEFEFFBC3DEFE01FC6CE
:1006B000FFFF7FFBFFDFFEFEFFBC3DEFE00FE3C768
:1006C000FE787BC3DE1EF0FFBC3DEF0007FF87FC1A
:1006D000787BC3DE1EF0F83C3DEF0001FFFFF00029
:1006E0007BC3C01EF0F03C3DEF0001F37FE03FFB19
:1006F000C3CFFEF0F03C3DEF0003E33F807FFBC340
:10070000DFFEF0F03C3DEF0007E73C00787BC3DE06
:100710001EF0F03C3DEF0007FFBE00787BC3DE1EFD
:10072000F0F03C3DEF0007FFFE00787BC3DE1EF0DB
:10073000F03C3DEF000FFFFE007FFBFFDFFEF0F01F
:100740003FFDEFE00FFFFF007FFBFFDFFEF0F03F1C
:10075000FDEFE00FF9FF003E79F9CF9EF0F01F3D6D
:10076000E7E01FF1FF0000000000000000000000B3
:10077000001F80FF007FFFFFFFFFFFFFFFFFFFE085
:100780001C007F007FFFFFFFFEB46D888D18E00026
:10079000001F007FFFFFFFFE95AD7DB577E00000F5
:1007A0000F007FFFFFFFFEA5AD9D8D19E000000645
:1007B000007FFFFFFFFEB5ADEDB57EE0000000005D
:1007C0000001800000000000000000000380000025
:1007D0000000000000000007C00000000000000052
:1007E000000007C00000000000000000000FC00073
:1007F00000000000000000001FE0000000000000FA
:100800000000001FE00000000000000000003FE0CA
:100810000000000000000000003FF00000000000A9
:10082000000000007FF0000000000000001FF87FC3
:10083000F0000000000000003FFE7FF0000000001C
:100840000000003FFF7FF0000000000000001FFFDD
:10085000FBE0000000000000000FFFF9FFC00000F7
:10086000000000000FFFF9FFF80000000000000783
:10087000FFF1FFFF00000000000003FC73FFFF809A
:10088000000000000001FE3FFFFF800000000000AC
:1008900000FF1E0FFF000000000000007FFE1FFC95
:1008A000000000000000003FFFFFF8000000000013
:1008B00000000FDFFFE0000000000000001F19FF34
:1008C000C0000000000000003F3CFF0000000000EE
:1008D0000000007E7CF800000000000000007FFEA9
:1008E0007C0000000000000000FFFFFC0000000092
:1008F00000000000FFFFFE0000000000000000FFFD
:10090000FFFE0000000000000001FFEFFE000000FD
:100910000000000001FFCFFE000000000000000307
:10092000FF07FE0000000000000003FC07FE0000BF
:10093000000000000003F003FE00000000000000C3
:10094000018000FE000000000000000000007E00AA
:100950000000000000000000003E00000000000059
:10096000000000000C000000000000078000FC00F8
:100970000003C0000000078001FC000003C000006D
:1009800000078001FC000003C0000000078001E0B8
:100990000000001E000000078001E00000001E00B3
:1009A0007FE3F79FF9FDE7787BDFC0FFF7FFBFFD2F
:1009B000FDFF787BDFC0FFF7FFBFFDFDFF787BDF2A
:1009C000C0F0F787BC3DE1FF787BDE00F0F787BC25
:1009D0003DE1F0787BDE0000F787803DE1E0787B49
:1009E000DE007FF7879FFDE1E0787BDE00FFF78781
:1009F000BFFDE1E0787BDE00F0F787BC3DE1E07809
:100A00007BDE00F0F787BC3DE1E0787BDE00F0F7AD
:100A100087BC3DE1E0787BDE00FFF7FFBFFDE1E052
:100A20007FFBDFC0FFF7FFBFFDE1E07FFBDFC07CA6
:100A3000F3F39F3DE1E03E7BCFC0000000000000EB
:100A40000000000000FFFFFFFFFFFFFFFFFFFFC0F0
:100A5000FFFFFFFFFD68DB111A31C0FFFFFFFFFD45
:100A60002B5AFB6AEFC0FFFFFFFFFD4B5B3B1A33C6
:100A7000C0FFFFFFFFFD6B5BDB6AFDC02200FF21B3
:100A80000001020408102040800102040810200127
:100A900002040810200000000023002600290004A2
:100AA0000404040404040402020202020203030315
:100AB0000303030010267C3011241FBECFEFD8E0C3
:100AC000DEBFCDBF12E0A0E0B1E0E8E8FAE602C088
:100AD00005900D92A639B107D9F724E0A6E9B2E056
:100AE00001C01D92AB3BB207E1F715E0CBE5D5E0C5
:100AF00004C02197FE010E945233CA35D107C9F7BD
:100B00000E94C0270C9437350C94000091E090931C
:100B10007E0380937D0310927C0310927B030895E3
:100B2000909172039111FCCF91E090937203909396
:100B300071032FEF2093700310926F03260F209301
:100B40006E0390936D0390916D03880F892B8093B2
:100B50006D0380916C038130F9F410926C038091E5
:100B60006D038093BB008091BC0083FDF8CF85ECC2
:100B70008093BC00809172038130E1F380916F0318
:100B8000861710F460916F03ACE4B3E0ECE2F3E09D
:100B900080E0861303C0089585EEEACF9D9191937E
:100BA0008F5FF7CF80912A0390912B03891B990BBC
:100BB0000895089508950895AF92BF92CF92DF925D
:100BC000EF92FF920F931F93CF93DF936C017B0102
:100BD0008B01040F151FEB015E01AE18BF08C01793
:100BE000D10759F06991D601ED91FC910190F08106
:100BF000E02DC6010995892B79F7C501DF91CF91C9
:100C00001F910F91FF90EF90DF90CF90BF90AF902A
:100C10000895FC01538D448D252F30E0842F90E002
:100C2000821B930B541710F0CF96089501970895E7
:100C3000FC01918D828D981761F0A28DAE0FBF2FB0
:100C4000B11D5D968C91928D9F5F9F73928F90E006
:100C500008958FEF9FEF0895FC01918D828D981775
:100C600031F0828DE80FF11D858D90E008958FEFB2
:100C70009FEF0895FC01918D228D892F90E0805C7B
:100C80009F4F821B91098F73992708958FE793E0F7
:100C90000E943A0621E0892B09F420E0822F089572
:100CA00080E090E0892B29F00E94460681110C9487
:100CB00000000895FC01A48DA80FB92FB11DA35AFF
:100CC000BF4F2C91848D90E001968F739927848F6C
:100CD000A689B7892C93A089B1898C91837080648F
:100CE0008C93938D848D981306C00288F389E02D30
:100CF00080818F7D80830895EF92FF920F931F93E1
:100D0000CF93DF93EC0181E0888F9B8D8C8D9813BE
:100D10001AC0E889F989808185FF15C09FB7F894CA
:100D2000EE89FF896083E889F98980818370806416
:100D300080839FBF81E090E0DF91CF911F910F9161
:100D4000FF90EF900895F62E0B8D10E00F5F1F4F70
:100D50000F731127E02E8C8D8E110CC00FB607FC7F
:100D6000FACFE889F989808185FFF5CFCE010E940D
:100D70005A06F1CFEB8DEC0FFD2FF11DE35AFF4F1B
:100D8000F0829FB7F8940B8FEA89FB89808180629B
:100D9000CFCFCF93DF93EC01888D8823B9F0AA8958
:100DA000BB89E889F9898C9185FD03C0808186FD26
:100DB0000DC00FB607FCF7CF8C9185FFF2CF808175
:100DC00085FFEDCFCE010E945A06E9CFDF91CF918A
:100DD0000895833081F028F4813099F08230A9F0B1
:100DE00008958730A9F08830C9F08430B1F480913B
:100DF00080008F7D03C0809180008F77809380007A
:100E0000089584B58F7784BD089584B58F7DFBCF19
:100E10008091B0008F778093B00008958091B000EA
:100E20008F7DF9CFCF93DF93282F30E0F901E8567B
:100E3000FA4F8491F901EF57F54FD491F901E1563A
:100E4000F54FC491CC23A1F081110E94E906EC2F4B
:100E5000F0E0EE0FFF1FEB56F54FA591B491EC912A
:100E6000ED2381E090E009F480E0DF91CF910895D7
:100E700080E090E0FACF1F93CF93DF93282F30E0EC
:100E8000F901E856FA4F8491F901EF57F54FD491E3
:100E9000F901E156F54FC491CC23A9F0162F811129
:100EA0000E94E906EC2FF0E0EE0FFF1FEE52FA4F22
:100EB000A591B4918FB7F894EC91111108C0D09519
:100EC000DE23DC938FBFDF91CF911F910895DE2B3E
:100ED000F8CF10922B0310922A0310927C031092E9
:100EE0007B031092720381E08093710310926C0374
:100EF00061E082E10E943B0761E083E10E943B07E1
:100F0000E9EBF0E080818E7F808380818D7F80831C
:100F100088E48093B80085E48093BC0089ED95E077
:100F200090932903809328038AED95E090932703FB
:100F3000809326030895CF93DF9390E0FC01EF5751
:100F4000F54F24918156954FFC0184918823C9F077
:100F500090E0880F991FFC01E455FA4FA591B491D8
:100F6000FC01EE52FA4FC591D49161110DC09FB7AB
:100F7000F8948C91209582238C9388812823288350
:100F80009FBFDF91CF910895623051F49FB7F894DD
:100F90003C91822F809583238C93E8812E2BEFCF79
:100FA0008FB7F894EC912E2B2C938FBFEACF209122
:100FB000000190E4299F900111248E50822B809390
:100FC0007C0080917A00806480937A0080917A001E
:100FD00086FDFCCF809178009091790008953FB70D
:100FE000F89480910A0390910B03A0910C03B091A7
:100FF0000D0326B5A89B05C02F3F19F00196A11D32
:10100000B11D3FBFBA2FA92F982F8827BC01CD0152
:10101000620F711D811D911D42E0660F771F881FB1
:10102000991F4A95D1F708958F929F92AF92BF92E0
:10103000CF92DF92EF92FF926B017C010E94EF074B
:101040004B015C01C114D104E104F104B9F00E9428
:10105000EF07681979098A099B09683E7340810581
:10106000910580F321E0C21AD108E108F10888EE69
:10107000880E83E0981EA11CB11CE4CFFF90EF9076
:10108000DF90CF90BF90AF909F908F9008952FB733
:10109000F894609106037091070380910803909182
:1010A00009032FBF0895DC0180E0615090F09D910D
:1010B0009827E92FEF70F0E0E858FA4F2491E92FD4
:1010C000E295EF70F0E0E857FA4FE491822F8E2717
:1010D000ECCF0895DC012C911196ED91FC91F894E0
:1010E0008181822B81839281322F30959323928349
:1010F00087E090E00197F1F781818323818383E288
:1011000090E00197F1F790817894EFECF0E031975F
:10111000F1F7922381E009F480E00895FC019081C9
:101120000180F281E02D292F209560FF14C0F894F2
:101130008281822382838181892B8183A3E2B0E033
:101140001197F1F78281982B9283789487ED90E044
:101150000197F1F70895F894828182238283818137
:10116000892B8183AFEFB0E01197F1F78281982B43
:10117000928378948FE090E0EBCFDF92EF92FF9232
:101180000F931F93CF93DF93EC01D62EE42E08E04C
:1011900010E0FF24F39461E08D2D8F2109F460E0CD
:1011A000CE010E948E08FF0C01501109A1F7E11039
:1011B00010C0F894E981FA81918188818095892312
:1011C0008183E981FA819281888180958923828354
:1011D0007894DF91CF911F910F91FF90EF90DF9066
:1011E0000895EF92FF920F931F93CF93DF938C019B
:1011F0007B0140E065E50E94BD08E70188E0E80E5C
:10120000F11C699140E0C8010E94BD08CE15DF05C0
:10121000C1F7DF91CF911F910F91FF90EF9008954B
:10122000FC0190810180F281E02DF8948181292FC9
:1012300020958223818378943DE743E050E031504C
:1012400029F1DA011197F1F780818923C1F3F8942C
:101250008281822382838181892B81837894ABE789
:10126000B7E01197F1F7F894818182238183A3E19C
:10127000B1E01197F1F78081982381E009F080E0D7
:101280007894E3E6F6E03197F1F7089580E0089569
:10129000AF92BF92CF92DF92EF92FF920F931F9384
:1012A000CF93DF938B01BC01809132049091330482
:1012B0000E94F10840E06EEB80913204909133047B
:1012C0000E94BD08E801680189E0C80ED11CA09009
:1012D0003204B090330488E0E82EF12C10E001E0F5
:1012E000C5010E946A088111102B000F81E0E81AE5
:1012F000F108B1F71993CC16DD0649F78091320455
:10130000909133040E94100991E0813009F090E03F
:10131000892FDF91CF911F910F91FF90EF90DF9078
:10132000CF90BF90AF9008950F931F93CF93DF930B
:10133000CDB7DEB729970FB6F894DEBF0FBECDBF8D
:101340008C0180913204909133040E941009811124
:1013500002C080E01FC0BE016F5F7F4FC8010E94C6
:1013600048098823B1F368E0CE0101960E94530832
:1013700099858913EECF8D818F33B9F020F48F31A9
:1013800041F789E007C08F3521F08F3711F78CE0E6
:1013900001C08BE029960FB6F894DEBF0FBECDBF1B
:1013A000DF91CF911F910F9108958AE0F3CF0895B7
:1013B000FC016370668B8481958126813781613061
:1013C00039F0633029F09187808733872287089529
:1013D000318720879387828708952F923F924F927B
:1013E0005F926F927F928F929F92AF92BF92CF92B5
:1013F000DF92EF92FF920F931F93CF93DF93CDB7BE
:10140000DEB76A970FB6F894DEBF0FBECDBF9A8FD6
:10141000898F7A8369834A01D22E18870F83370117
:10142000BC2CDC0159962D913C915A972115310520
:1014300009F015C118968D919C9119976817790735
:101440000CF0D7C11A968D919C91481759070CF052
:10145000D0C14C2C512CB6E0CB9E600D711D1124D7
:101460007C876B87161617060CF0C3C1EA2DF0E0D7
:10147000FA87E98793E0EE0FFF1F9A95E1F7F88B63
:10148000EF87CF01840F951F181619060CF0B1C114
:10149000A98DBA8D58968C91811104C0BFEABD15F3
:1014A00008F4D394A98DBA8DED91FC911197028423
:1014B000F385E02DCD010995B5E0DB9EC001112437
:1014C000E981FA81FC83EB83312C212C9C01285883
:1014D0003F4F388F2F8B4A2D50E05E8B4D8BEF891D
:1014E000F88DE20DF31D44919E828D82D12CC12C8A
:1014F00069817A81620D731D7A8B698B842F90E0EC
:101500009C8B8B8BE98DFA8DA081B18140FF82C0CD
:10151000F1E0BF126FC0AF126DC01C96ED91FC914F
:101520002F813885A4014C0D5D1D69897A89898DCB
:101530009A8D0995EB89FC89F595E7954E2F5FEF1C
:10154000C51AD50A6D817E818D899E89680F791FA4
:101550007E836D8398E0C916D10481F6AFEF2A1A15
:101560003A0AEB81FC81E40DF51DFC83EB83F5E089
:101570002F16310409F0B3CF2F8138852615370592
:10158000B9F0A98DBA8DED91FC91B1E0BB1257C0B5
:10159000AB1255C069817A816B5F7F4F0088F189FA
:1015A000E02D830128E030E0A401898D9A8D099512
:1015B000A98DBA8DED91FC9111970688F789E02DE0
:1015C000CD016A960FB6F894DEBF0FBECDBFDF9196
:1015D000CF911F910F91FF90EF90DF90CF90BF9030
:1015E000AF909F908F907F906F905F904F903F90C3
:1015F0002F9009941E96ED91FC91EF80F884098557
:101600001A8592014D815E816B817C81898D9A8DD5
:10161000099590CF2F8138852615370509F48ACF93
:1016200031E0B31207C0A31205C01C96ED91FC91E6
:10163000930178CF1E96ED91FC917301E0CF6B85FD
:101640007C85641975090684F785E02D73010F8583
:1016500018899201A401898D9A8D0995A9CFF90164
:1016600034969491329745915491D91AB7E0DB9E04
:10167000400D511D1124F901259134913C8B2B8B88
:10168000FA0125903490FA01329674903196349193
:10169000398B329664903196449041E04C1518F0A5
:1016A0004A1508F07FC0662D062C000C770B7C8352
:1016B0006B83842D042C000C990B9E838D83A98D44
:1016C000BA8DED91FC9111970284F385E02DCD0147
:1016D0000995512CD12CC12CEA2DF0E0FA87E9872D
:1016E0002B2D30E03C872B87A401440D511D47FC76
:1016F0005A95588F4F8B69817A81660D711D67FCF1
:101700007A957E876D877989C71608F051CF2C2D81
:1017100030E04D815E81420F531FA985BA854A9FF3
:10172000C0014B9F900D5A9F900D1124FC01E80DB4
:10173000F91DF88BEF87852D612C4F89588D420F4D
:10174000531F5E8B4D8B671408F050C044244394A4
:10175000480E877041F4C1010196EB89FC89E20DC6
:10176000F31DD4901C01D7FE19C0A98DBA8DED913F
:10177000FC91662D70E0B1E0BB1219C0AB1217C02E
:101780002D853E85620F731F0484F585E02D2F8122
:1017900038854D895E89898D9A8D0995DD0C639414
:1017A000842DD1CF1E821D821C821B8288CF4B814B
:1017B0005C81640F751FAB85BC856A9FC0016B9F00
:1017C000900D7A9F900D112469817A81680F791F9D
:1017D0000684F785E02DEF80F88409851A859D0140
:1017E0004F855889898D9A8D0995D8CF570CC39408
:1017F0008ACF6A960FB6F894DEBF0FBECDBFDF91D9
:10180000CF911F910F91FF90EF90DF90CF90BF90FD
:10181000AF909F908F907F906F905F904F903F9090
:101820002F9008958F929F92AF92CF92EF92FF9256
:101830000F931F93CF93DF93EC01262F898D9A8D01
:10184000009709F051C06A30D1F41D861C868D893D
:1018500048E0849F900111248E859F85820F931FFD
:101860009F878E8781E090E0DF91CF911F910F914C
:10187000FF90EF90CF90AF909F908F9008956D3034
:1018800089F3CC88AD888F898823C1F08C859D85AC
:1018900036E0C39E800D911D112448855985481757
:1018A000590764F44E855F851D861C8638E0A39E2B
:1018B000C0011124840F951F9F878E87EA88FB88BB
:1018C000088919894E855F856C857D85CE010E94CA
:1018D000ED092C898C859D8546E0249F800D911D06
:1018E00011249D878C87BECF6A3069F41D861C86C3
:1018F000FC013696E4912D898E859F85E29F800DAF
:10190000911D1124ADCF6D3009F4ACCFFC0134969C
:101910003491631708F4A6CF3196E491E61708F4E2
:10192000A1CFFC01329685909490462F431B342F13
:1019300047E0349F800C911C1124F40132963491BD
:101940003196E4913323A9F1EE2399F1CC88F40187
:101950003596E491AD884F89442301F10E2E000C99
:10196000FF0BE30FF11DCE9EA001CF9E500D112461
:101970006C857D85460F571F6885798564177507C7
:101980006CF44E855F851D861C86FC013696E491BD
:10199000AE9E400D511D11245F874E87EA88FB885B
:1019A000088919894E855F856C857D85CE010E94E9
:1019B000ED09F4013496E4912C898C859D85E29F94
:1019C000800D911D11248DCF682F8EE494E00C942E
:1019D000120C6F927F928F929F92AF92BF92CF9292
:1019E000DF92EF92FF920F931F93CF93DF93EC015F
:1019F0006B015A0139014801E881F9810284F385BC
:101A0000E02D0995E881F9810288F389E02D8701AD
:101A10009301A501B601CE010995A501480D591DF7
:101A200041505109E881F9810288F389E02D930141
:101A3000B601CE010995E881F9810088F189E02D90
:101A40009401A501B601CE010995C60CD71CB601BB
:101A500061507109E881F9810088F189E02D9401D4
:101A6000A501CE010995E881F9810688F789E02D65
:101A7000CE01DF91CF911F910F91FF90EF90DF90FA
:101A8000CF90BF90AF909F908F907F906F90099470
:101A90006F927F928F929F92AF92BF92CF92DF927E
:101AA000EF92FF920F931F93CF93DF935C01EB01B3
:101AB0006A01490138018701DC01ED91FC9162174F
:101AC000730719F5641675062CF0962D872D3A01CB
:101AD000C92ED82E9601261937092F5F3F4F048C47
:101AE000F58DE02DA301BE01C5010995DF91CF91D0
:101AF0001F910F91FF90EF90DF90CF90BF90AF902C
:101B00009F908F907F906F9008954615570591F4A0
:101B10002617370724F0892D4B01C22FD82F9E019D
:101B2000281939092F5F3F4F068CF78DE02DA6014C
:101B3000B401DACF0284F385E02D0995D501ED914A
:101B4000FC910488F589E02D83019401A601BE0172
:101B5000C5010995D501ED91FC910688F789E02D25
:101B6000C501DF91CF911F910F91FF90EF90DF9012
:101B7000CF90BF90AF909F908F907F906F9009947F
:101B8000EF92FF920F931F93DC011A960D911C9117
:101B90001B9718962D913C911997ED91FC9100A0FF
:101BA000F1A1E02D7B0150E040E070E060E009959C
:101BB0001F910F91FF90EF9008954F925F926F9257
:101BC0007F928F929F92AF92BF92CF92DF92EF92CD
:101BD000FF920F931F93CF93DF936C012B015A0158
:101BE00039014801DC01ED91FC910284F385E02D7F
:101BF0000995E201640C751CD601ED91FC91C615A6
:101C0000D7055CF40088F189E02D87019401A501D6
:101C1000BE01C60109952196EFCF0688F789E02D10
:101C2000C601DF91CF911F910F91FF90EF90DF9050
:101C3000CF90BF90AF909F908F907F906F905F906C
:101C40004F9009948F929F92AF92BF92CF92DF9262
:101C5000EF92FF920F931F93CF93DF93EC015B0101
:101C60004A016901E881F9810284F385E02D099533
:101C700095012C0D3D1D21503109E881F981048821
:101C8000F589E02D78018401A401B501CE01099503
:101C9000E881F9810688F789E02DCE01DF91CF91A7
:101CA0001F910F91FF90EF90DF90CF90BF90AF907A
:101CB0009F908F9009948F929F92AF92BF92CF92F4
:101CC000DF92EF92FF920F931F93CF93DF93EC017C
:101CD0005B014A0169017801E881F9810284F38599
:101CE000E02D0995C80CD91C860101501109E88125
:101CF000F9810488F589E02D9501A401B501CE0193
:101D00000995E881F9810688F789E02DCE01DF91F8
:101D1000CF911F910F91FF90EF90DF90CF90BF90E8
:101D2000AF909F908F900994EF92FF920F931F9323
:101D3000DC01ED91FC9100A0F1A1E02D09951F912E
:101D40000F91FF90EF9008950F931F93DC01ED9199
:101D5000FC91068CF78DE02D09951F910F91089548
:101D60000F931F93DC01ED91FC91048CF58DE02D18
:101D700009951F910F910895DC01ED91FC9100846C
:101D8000F185E02D09943F924F925F926F927F927E
:101D90008F929F92AF92BF92CF92DF92EF92FF927B
:101DA0000F931F93CF93DF935C017B014A0169017D
:101DB000390187E0680E711C93E0759467949A95D9
:101DC000E1F72B01400E511E10E000E0312CD0E075
:101DD000C0E0CE0187709927330C892B59F4FE019E
:101DE00083E0F595E7958A95E1F7E00FF11FE80D9F
:101DF000F91D349037FE0AC021E030E0A701B5019B
:101E00006C0F7D1F8EE494E00E94BC0E2196CC16D0
:101E1000DD06F9F68FEFE81AF80A060D171DE4142F
:101E2000F504A9F6DF91CF911F910F91FF90EF90EC
:101E3000DF90CF90BF90AF909F908F907F906F90EA
:101E40005F904F903F9008952F923F924F925F92F4
:101E50006F927F928F929F92AF92BF92CF92DF92BA
:101E6000EF92FF920F931F93CF93DF9300D000D098
:101E700000D0CDB7DEB73C016A013E832D83FC82E2
:101E8000EB825801A41AB50AB7FE03C0B194A1941D
:101E9000B1088D809E80861A970A97FE03C09194A0
:101EA000819491088A149B045CF0902F812F0D81FE
:101EB0001E819D838E839C2D8D2D6B01692F782F24
:101EC0000C151D055CF09D818E817E836D83692FCD
:101ED000782F902F812F8601C92ED82E1601201A17
:101EE000310A2B012D813E81421A530A57FE03C04D
:101EF000519441945108710137FE03C03FEFE31A3A
:101F0000F30AF594E7948D819E81861797075CF517
:101F1000A1E0B0E0BA83A983C016D1064CF1D30189
:101F2000ED91FC910484F585E02D2B813C81A80185
:101F30006D817E818A149B041CF04D815E81B80105
:101F4000C3010995E418F508F7FE0AC02D813E810A
:101F500089819A81280F391F3E832D83E20CF31C5F
:101F60000F5F1F4FD9CF2FEF3FEF3A832983D4CF95
:101F700026960FB6F894DEBF0FBECDBFDF91CF918E
:101F80001F910F91FF90EF90DF90CF90BF90AF9097
:101F90009F908F907F906F905F904F903F902F9089
:101FA000089585ED8093BC008091BC0084FDFCCF3A
:101FB0001092720308952091E202260F3327331FF7
:101FC00021323105ECF420917203FC0190E080E0B5
:101FD000243069F082E00895A091E2022191AC01E1
:101FE0004E535D4FA40FB52FB11D2C93019686174C
:101FF00098F38091E202680F6093E20280E0089516
:1020000081E00895E0912B0380912A03E81730F4D2
:10201000F0E0E45DFC4F808190E008958FEF9FEF4A
:10202000089590912B0380912A032FEF3FEF98178B
:1020300048F4E92FF0E0E45DFC4F208130E09F5F41
:1020400090932B03C9010895CF92DF92EF92FF92F4
:102050000F931F93CF93DF937C01CB018A012091D3
:102060007E03222389F0EB016B01C40ED51ECC1533
:10207000DD0569F06991D701ED91FC910190F08146
:10208000E02DC7010995F3CF642F0E94DB0FC80133
:10209000DF91CF911F910F91FF90EF90DF90CF9044
:1020A0000895CF93DF931F92CDB7DEB76983209158
:1020B0007E032223F9F020917B03203258F021E0A7
:1020C00030E0FC013383228390E080E00F90DF91C9
:1020D000CF91089580917C03E82FF0E0EE55FD4FFD
:1020E000998190838F5F80937C0380937B0381E051
:1020F00090E0ECCF61E0CE0101960E94DB0FF7CFBC
:10210000682F8CE194E00C94511020917B0381E0C6
:10211000213208F044C0809172038111FCCF80917C
:102120007D0392E09093720391E0909371039FEF8F
:102130009093700310926F0320936E03A2EAB2E0B3
:10214000ECE4F3E090E0291331C010926D0390911C
:102150006D03880F892B80936D0380916C03813010
:1021600049F510926C0380916D038093BB008091C0
:10217000BC0083FDF8CF85EC8093BC008091720396
:102180008230E1F3809170038F3FB1F08091700352
:102190008032A1F080917003803391F084E010923E
:1021A0007C0310927B0310927E0308953D9131933E
:1021B0009F5FC9CF85EEE0CF80E0F1CF82E0EFCF27
:1021C00083E0EDCFCF9388E60E94860560E08CE146
:1021D00094E00E94511060E88CE194E00E9451105C
:1021E00080917403CAE06C2F0E9432338295807F05
:1021F000682F690F8CE194E00E9451108091750363
:102200006C2F0E9432338295807F682F690F8CE19A
:1022100094E00E945110809176036C2F0E9432331B
:102220008295807F682F690F8CE194E00E945110A5
:10223000809177036C2F0E9432338295807F682FC4
:10224000690F8CE194E00E945110809178036C2F0B
:102250000E9432338295807F682F690F8CE194E071
:102260000E945110809179038E516C2F0E9432335D
:102270008295807F682F690F8CE194E00E94511055
:102280008CE194E00E948510882329F010927A0353
:1022900080E0CF91089581E080937A0388E60E94E0
:1022A000860560E08CE194E00E94511080917303F8
:1022B0006C2F0E9432338295807F682F690F8CE1EA
:1022C00094E00E9451108CE194E00E9485108111ED
:1022D000DDCF81E0DECFAF92BF92DF92EF92FF922F
:1022E0000F931F93CF93DF938B01040F151FEB0107
:1022F0005C01A61AB70A7501EC0EFD1ED9908091FB
:10230000B6040E9486058F2D90E00E948010C701C0
:1023100099270E9480106D2D8CE194E00E9451104D
:102320008CE194E00E9485106AE070E080E090E02B
:102330000E941408C017D107F1F6DF91CF911F91C9
:102340000F91FF90EF90DF90BF90AF900895EF92C4
:10235000FF920F931F93CF93DF93EC01EC80FD80EE
:102360006E157F050CF070C057FF04C0240F351F99
:1023700050E040E08E819F81FA01E20FF31F8E173B
:102380009F071CF49C01241B350B121613060CF03E
:102390005BC0922F842F8695869586958E9DD00161
:1023A0008F9DB00D11246A0F7B1FAF8DB8A1A60FB2
:1023B000B71F477049F188E0841B482F682F70E0F1
:1023C000FB01E059FF4FE491281708F063C0621B3E
:1023D00071092FEF30E002C0359527956A95E2F735
:1023E000E2230130110539F0B0F10230110561F539
:1023F0008C91E82702C08C91E82BEC93941720F184
:102400002C813D81A20FB31FE92FE41BE83078F047
:102410000230110521F58E2F9C9190959C932C8173
:102420003D81A20FB31F88508830B0F7E770EE23CC
:1024300059F0F0E0E859FF4FE49101301105F9F04F
:1024400010F10230110519F1DF91CF911F910F9119
:10245000FF90EF900895E0958C91E823CECF81E036
:102460000115110509F480E081959E2F8C932C8134
:102470003D81A20FB31F98509830C0F7D7CF8C91F1
:10248000E82BEC93E1CFE0958C91E823FACF8C9187
:10249000E827F7CF0130110509F4ADCFE0F20230A3
:1024A000110509F4A5CFAE0DBF1DAECF0F931F933D
:1024B000CF93DF9377FF04C0260F371F70E060E0F3
:1024C000DC011496CD91DC91FB01E20FF31FCE17D6
:1024D000DF071CF49E01261B370B121613064CF562
:1024E000FA0157FD3796A3E0F595E795AA95E1F730
:1024F000EC9FD001ED9FB00DFC9FB00D11246A0F31
:102500007B1FDC015F96ED91FC91E60FF71F477092
:10251000552781E090E001C0880F4A95EAF7482FDF
:102520000130110559F0A8F02E0F3F1F02301105A0
:10253000E1F0DF91CF911F910F9108952E0F3F1F72
:10254000E217F307B1F38191DF011197842B8C938C
:10255000F7CF80952E0F3F1FE217F30751F39191AC
:10256000DF01119798239C93F7CFE217F30709F344
:102570008191DF01119784278C93F7CF0F931F93DD
:10258000FA01DC0156964C9156974230E9F04330FF
:10259000A1F1413061F514964D915C91DA01AE1BC9
:1025A000BF0BFD01E21BF30B77FD0BC0DC011696A0
:1025B0004D915C916417750724F4AB01BF010E9433
:1025C00056121F910F91089514964D915C91DA0166
:1025D000A61BB70BBD0161507109DC0116964D9128
:1025E0005C91DA01AE1BBF0BFD01E21BF30B77FD23
:1025F000E8CFAF010E94A711E4CF16964D915C91F0
:10260000DA01A61BB70BBD0161507109CDCF0F9345
:102610001F93FA01DC0156964C9156974230A9F06F
:10262000433091F1413019F514964D915C91DA01E6
:10263000AE1BBF0BFD013197F7FD04C0AB01BF011D
:102640000E94A7111F910F91089514964D915C91CE
:10265000DA01A61BB70BBD01DC0116964D915C910A
:10266000DA01AE1BBF0BFD013197621B730BF7FD47
:10267000E9CFDC0116964D915C91E417F50714F74C
:10268000AF010E945612DECF16964D915C91DA0191
:10269000A61BB70BBD01621B730BCECFFC0177FDF0
:1026A00064C080859185681779070CF05EC057FD7E
:1026B0005CC082859385481759070CF056C08689FF
:1026C0008230B1F0833029F1813041F484819581E9
:1026D000841B950BAB01BC016150710921303105A0
:1026E00009F108F443C02230310509F463C00895AC
:1026F00084819581DC01A61BB70BBD016150710976
:1027000086819781DC01A41BB50BAD0141505109B5
:10271000E5CF86819781861B970BBA01AC014150AA
:102720005109DCCFCA0157FD0796A3E0959587951F
:10273000AA95E1F7A481B5818A9F90018B9F300D06
:102740009A9F300D1124620F731F078CF0A1E02DAA
:10275000E60FF71F4770552721E030E001C0220F38
:102760004A95EAF78081822B80830895CA0157FD3C
:10277000079633E0959587953A95E1F7A481B58161
:102780008A9F90018B9F300D9A9F300D1124620F0C
:10279000731F078CF0A1E02DE60FF71F4770552738
:1027A00081E090E001C0880F4A95EAF7809590811A
:1027B0008923DACFCA0157FD079623E095958795BF
:1027C0002A95E1F7A481B5818A9F90018B9F300DF6
:1027D0009A9F300D1124620F731F078CF0A1E02D1A
:1027E000E60FF71F4770552721E030E001C0220FA8
:1027F0004A95EAF780818227B7CF08958EBD000001
:102800000DB407FEFDCF8EB50895FF920F931F9371
:10281000CF93DF93F82ED92FC62F80916B04909120
:102820006C04892B09F447C080916F040E948605CF
:1028300080916B0490916C04DC01ED91FC9101900E
:10284000F081E02D60E009950F2D1D2FD1E0C150E2
:1028500080916B0490916C04CF3F31F1D03298F0AD
:102860000E94851080916F040E94860580916B0400
:1028700090916C04DC01ED91FC910190F081E02DD0
:1028800060E00995D1E080916B0490916C04F801AF
:102890006491DC01ED91FC910190F081E02D0995AE
:1028A000DF5F0F5F1F4FD3CFDF91CF911F910F914C
:1028B000FF900C948510E0917B04F0917C04908152
:1028C000809181048095892380830F2D1D2FC15015
:1028D00008F438C0F80184912091690430916A04A9
:1028E000232B29F00E94FE130F5F1F4FF0CF28E02B
:1028F00030E040E8E0917704F091780490917F0413
:10290000582F5423D9F05081952B9083E09179046E
:10291000F0917A04908150918004952B9083E091FE
:102920007904F0917A0450819091800490959523D8
:102930009083469521503109E9F6D6CF5081909584
:102940009523E3CFDF91CF911F910F91FF900895D1
:102950001F93CF93DF93EC018D8D9E8D892BF9F022
:10296000162F89A10E9486058D8D9E8DDC01ED912B
:10297000FC910190F081E02D60E009958D8D9E8D98
:10298000DC01ED91FC910190F081E02D612F099522
:102990008D8D9E8DDF91CF911F910C948510ADA5EB
:1029A000BEA59C918BA9809589238C938B8D9C8D42
:1029B000892B31F0862FDF91CF911F910C94FE135C
:1029C00028E030E080E8A9A5BAA599A9462F4823B8
:1029D000C1F04C91942B9C93ABA5BCA59C914AA9AA
:1029E000942B9C93ABA5BCA54C919AA9909594234C
:1029F0009C9386952150310931F7DF91CF911F913A
:102A000008954C9190959423E6CF8CBD9DBD08957B
:102A1000FF920F931F93CF93DF9380916B0490915C
:102A20006C04892B09F472C08CE08093B80065E0D7
:102A30008CE79AE00E9405146091520461508EE484
:102A400094E00E94A8142091540430915504C901C7
:102A5000079697FD079623E0959587952A95E1F7C8
:102A60002091520430915304829F8001839F100D66
:102A7000929F100D1124C0916D04D0916E0480912D
:102A80006B0490916C040C0F1D1F892B09F47CC002
:102A900080916F040E94860580916B0490916C0474
:102AA000DC01ED91FC910190F081E02D60E409954D
:102AB000FF24F39480916B0490916C040C171D0714
:102AC000E1F1BFE1BF15A0F40E94851080916F0471
:102AD0000E94860580916B0490916C04DC01ED915D
:102AE000FC910190F081E02D60E40995FF24F394BE
:102AF00080916B0490916C046991DC01ED91FC91E3
:102B00000190F081E02D0995F394D4CF8091690470
:102B100090916A04892B31F0809183049091840410
:102B20000E940515E0917D04F0917E0490818091D2
:102B300082048095892380837ACF0E9485108091BA
:102B40006B0490916C04892B09F45FC0209185047B
:102B500030918604409187045091880460E074E2CB
:102B600084EF90E00E94B5302051310941095109AC
:102B700056954795379527952093B800DF91CF91CB
:102B80001F910F91FF900895E0917B04F0917C04D8
:102B9000808190918104892B80830C171D0779F225
:102BA00089912091690430916A04232B19F00E94C5
:102BB000FE13F3CF28E030E040E8E0917704F09195
:102BC000780490917F04582F5423D9F05081952B8D
:102BD0009083E0917904F0917A049081509180047F
:102BE000952B9083E0917904F0917A045081909133
:102BF0008004909595239083469521503109E9F6FC
:102C0000CCCF508190959523E3CFE0917D04F09156
:102C10007E04808190918204892B8083AFCF1F93A3
:102C2000CF93DF93EC01162F8D8D9E8D892B29F18B
:102C30008CE08093B80066EA111167EACE010E9429
:102C4000A8148D8D9E8D892B41F12FA938AD49ADEA
:102C50005AAD60E074E284EF90E00E94B5302051FC
:102C60003109410951095695479537952795209384
:102C7000B800DF91CF911F9108958B8D9C8D892B8A
:102C800021F08DA99EA90E940515EFA5F8A99081B4
:102C90008CA9809589238083CECFEFA5F8A9808168
:102CA0009CA9892B8083E5CF089590E080E008956A
:102CB0008093BB0084E88093BC008091BC0087FFB8
:102CC000FCCF9091B900987F81E0983231F0983133
:102CD00029F0903419F080E008950895089584EA69
:102CE0008093BC008091BC0087FFFCCF8091B9002D
:102CF000887F19F080EC0C94581680E008955F925C
:102D00006F927F928F929F92AF92BF92CF92DF92FB
:102D1000EF92FF920F931F93CF93DF93CDB7DEB760
:102D2000582E742E652EB62E922E0E946F16852D6B
:102D30000E9458168D2D0E9458168C2D0E945816F0
:102D40008B2D8370A82A80E081108CE08A290E9454
:102D50005816862D0E945816872D0E9458168CE012
:102D6000F694E794D794C7948A95D1F78C2D807FF9
:102D7000C82E892D8F708C290E945816812F0E9491
:102D80005816802F0E94581684E98093BC008091C9
:102D9000BC0084FDFCCFDF91CF911F910F91FF907C
:102DA000EF90DF90CF90BF90AF909F908F907F90EB
:102DB0006F905F9008954F925F926F927F928F9283
:102DC0009F92AF92BF92CF92DF92EF92FF920F93BA
:102DD0001F93CF93C82FC090AD04D090AE04E09065
:102DE000AF04F090B004CB01BA01A70196010E9494
:102DF000B53049015A0125E0F694E794D794C79479
:102E00002A95D1F735E096958795779567953A9508
:102E1000D1F747E0660F771F881F991F4A95D1F7B2
:102E2000A70196010E94B53029013A018B019C014E
:102E3000B501A401552766277727E7E0440F551F02
:102E4000661F771FEA95D1F7525061097109440D49
:102E5000551D661D771D812CA12C8C2F0E947F167D
:102E6000CF911F910F91FF90EF90DF90CF90BF9087
:102E7000AF909F908F907F906F905F904F9008954C
:102E80008F92AF92CF92DF92EF92FF920F931F93A8
:102E900088248394443051056105710509F0812C23
:102EA0004450510961097E4F97E0440F551F661F3A
:102EB000771F9A95D1F7A22EC12CD12C7601C394FD
:102EC00000E010E098010E947F161F910F91FF9083
:102ED000EF90DF90CF90AF908F900895CF93DF93D6
:102EE000D82FC62F0E946F168D2F0E9458168C2F38
:102EF0000E94581684E98093BC008091BC0084FD38
:102F0000FCCFDF91CF910895CF93C82F60E880E187
:102F10008C0F0E946E17EC2FF0E0EE0FFF1FEB56A8
:102F2000FB4F11821082CF9108952F923F924F92C2
:102F30005F926F927F928F929F92AF92BF92CF9249
:102F4000DF92EF92FF920F931F93CF93DF9300D006
:102F500000D01F92CDB7DEB789838091A5049091F0
:102F6000A604A091A704B091A804892B8A2B8B2BCF
:102F700019F481E00E9484178091A9049091AA0419
:102F8000A091AB04B091AC04892B8A2B8B2B19F444
:102F900082E00E9484174090A5045090A60460909F
:102FA000A7047090A804411451046104710409F449
:102FB0007FC12981222309F4A5C0C0909704D09035
:102FC0009804F12CE12C40919C044983A3019201C7
:102FD000C701B6010E9422339B01AC018981E82F11
:102FE000F0E0EE5BFE4FA081B0E00E94AA304B0102
:102FF0005C01DC01CB0180589545A84CB042813082
:10300000924CAB4EBB4008F446C0609125017091D4
:1030100026018091270190912801A30192010E942D
:10302000B53069017A0181E044E0C416D104E104BD
:10303000F10408F489C086E0C816D104E104F10463
:1030400008F49BC019829DE2C91691E0D906E104FB
:10305000F10440F029812F5F2983F694E794D794F7
:10306000C794F1CF4981411103C0E894C0F8198297
:10307000A3019201C701B6010E9422339B01AC015A
:103080008981E82FF0E0EE5BFE4FA081B0E00E9466
:10309000AA304B015C01B501A40182E20E94DB165B
:1030A0008091970490919804B0E0A0E08C159D0564
:1030B000AE05BF0529F480919C0499818917D1F050
:1030C00029812295207FB701A60182E30E94401743
:1030D00060919F046C6681E10E946E17D092980403
:1030E000C0929704298120939C048091B504806844
:1030F0008093B5048092B1049092B204A092B3047C
:10310000B092B404C090A904D090AA04E090AB049B
:10311000F090AC04C114D104E104F10409F4B0C08E
:103120008090B1049090B204A090B304B090B40425
:10313000C501B401A70196010E94B53028303105C0
:103140004105510500F582E00F900F900F900F9010
:103150000F90DF91CF911F910F91FF90EF90DF9033
:10316000CF90BF90AF909F908F907F906F905F9027
:103170004F903F902F900C94841704E0C02ED12CD8
:10318000E12CF12C72CF1D8221343105410551050E
:1031900060F08D818F5F8D83CC0CDD1CEE1CFF1CDD
:1031A0005695479537952795EFCFC501B401A701EF
:1031B00096010E94B53029833A834B835C832FEFBD
:1031C0003FEF4FE050E00E945F3356016701E12C72
:1031D000F12C00E010E00E948C3329013A019D811E
:1031E0009295907F9D83C12CD12C7601C39441147C
:1031F00051046104710431F0CC24CA94DC2CFFE04A
:10320000EF2EF12CC301B20127E0660F771F881F54
:10321000991F2A95D1F7A70196010E94B53049015F
:103220005A018B019C0149815A816B817C81552710
:1032300066277727E7E0440F551F661F771FEA953B
:10324000D1F7525061097109480D591D6A1D7B1D46
:10325000812CAD808AE30E947F168CE445284628A5
:10326000472809F08CE06091A0046062682B82E13D
:103270000E946E1781E090E090939A0480939904E5
:103280000F900F900F900F900F90DF91CF911F91A3
:103290000F91FF90EF90DF90CF90BF90AF909F90F5
:1032A0008F907F906F905F904F903F902F900895F8
:1032B0008090A9049090AA04A090AB04B090AC04B4
:1032C00081149104A104B104D9F2C0909904D09062
:1032D0009A04F12CE12C20919D042983A5019401ED
:1032E000C701B6010E9422339B01AC018981E82FFE
:1032F000F0E0EE5BFE4FA081B0E00E94AA308B01AF
:103300009C0100581545284C30420130124C2B4E80
:103310003B4008F443C060912501709126018091E3
:10332000270190912801A50194010E94B5306901FF
:103330007A0184E0C816D104E104F10408F403CF53
:1033400096E0C916D104E104F10408F458C01982CA
:103350002DE2C21621E0D206E104F10440F04981D9
:103360004F5F4983F694E794D794C794F1CF89814E
:10337000811103C0E894C0F81982A5019401C70126
:10338000B6010E9422339B01AC019981E92FF0E044
:10339000EE5BFE4FA081B0E00E94AA30AB01BC0101
:1033A00082E20E94DB168091990490919A04B0E029
:1033B000A0E08C159D05AE05BF0531F480919D04FC
:1033C0002981821709F45CCF29812295207FB701DA
:1033D000A6018AE30E9440176091A0046C6682E116
:1033E0000E946E17D0929A04C0929904498140932A
:1033F0009D048091B50480688093B50441CF84E03A
:10340000C82ED12CE12CF12CB5CF4F925F926F9248
:103410007F92AF92BF92CF92DF92EF92FF920F9383
:103420001F93CF93DF93D82F082F10E0F801EE0FF2
:10343000FF1FEE0FFF1FEF55FB4F40805180628052
:103440007380411451046104710489F48D2FDF915C
:10345000CF911F910F91FF90EF90DF90CF90BF9091
:10346000AF907F906F905F904F900C9484175801AD
:10347000AA0CBB1CF501EB56FB4FC080D180F12C90
:10348000E12C0B561B4FF801C681A3019201C70125
:10349000B6010E9422339B01AC01EC2FF0E0EE5B01
:1034A000FE4FA081B0E00E94AA309B01AC012058E1
:1034B0003545484C50422130324C4B4E5B4008F46D
:1034C0003FC0609125017091260180912701909164
:1034D0002801A30192010E94B53069017A0184E0BC
:1034E000C816D104E104F10408F4B0CFE6E0CE162A
:1034F000D104E104F10408F470C0C0E0FDE2CF168D
:10350000F1E0DF06E104F10430F0CF5FF694E794D8
:10351000D794C794F3CFC11103C0E894C0F8C0E0BA
:10352000A3019201C701B6010E9422339B01AC01A5
:10353000EC2FF0E0EE5BFE4FA081B0E00E94AA30DD
:103540002AE1D11122E2AB01BC01822F0E94DB16DD
:10355000F501EB56FB4F80819181B0E0A0E08C1526
:103560009D05AE05BF0521F4F80186818C1731F168
:103570002C2F2295207FB701A6018D2F880F880F51
:10358000880F865D0E944017F801618580E0D111A7
:1035900080E26C64682B80E18D0F0E946E17F5014C
:1035A000EB56FB4FD182C082F801C6838091B504EF
:1035B00090E2D11190E8892B8093B504DF91CF91EF
:1035C0001F910F91FF90EF90DF90CF90BF90AF9041
:1035D0007F906F905F904F90089584E0C82ED12C1B
:1035E000E12CF12C9ACFFF920F931F93CF93DF938F
:1035F00000D0CDB7DEB7E0E1F1E010E000E081916E
:10360000080F111D81E0E332F807C9F743E150E0EC
:1036100060E171E082E090E00E946B110F5F1F4F4C
:103620001A83098342E050E0BE016F5F7F4F90E054
:1036300080E00E946B11E9E0F1E080E191E010E0B0
:1036400000E02191020F111D8E179F07D1F7809185
:10365000110199E0F92E8F9DC001112447E050E03F
:1036600069E071E047960E946B110F5F1F4F1A834C
:103670000983809111018F9DC001112442E050E027
:10368000BE016F5F7F4F45960E946B110F900F90A8
:10369000DF91CF911F910F91FF90089580911D01AF
:1036A00090911E01092E000CAA0BBB0B8054934075
:1036B000A446BE4F8093AD049093AE04A093AF0494
:1036C000B093B00480E00E94051A82E00C94051AC1
:1036D0004F925F926F927F928F929F92AF92BF9222
:1036E000CF92DF92EF92FF920F931F93CF93DF93CE
:1036F00000D000D01F92CDB7DEB700911B01109112
:103700001C01012E000C220B330B40911903509128
:103710001A03052E000C660B770B40900A0150909F
:103720000B0160900C0170900D01C090A504D09029
:10373000A604E090A704F090A80481E08D83C11452
:10374000D104E104F10409F41D828091A104909157
:10375000A204A091A304B091A40489839A83AB83AB
:10376000BC8380910901882309F443C0809113012F
:1037700090911401A0911501B09116014C015D01C9
:10378000E0E28E0EE1EA9E1EE7E0AE1EB11C800E66
:10379000911EA21EB31E840E951EA61EB71E840D7A
:1037A000951DA61DB71D805E9E45A84FBF4F800F7B
:1037B000911FA21FB31F8C019D01040F151F261F0F
:1037C000371F1092B50489819A81AB81BC81801723
:1037D0009107A207B30709F443C00093A104109313
:1037E000A2042093A3043093A40480E00E94051A4D
:1037F00037C08091170190911801A0911901B091E3
:103800001A014C015D01E0E28E0EE1EA9E1EE7E046
:10381000AE1EB11C800E911EA21EB31E840E951EFC
:10382000A61EB71E840D951DA61DB71D805E9E4564
:10383000A84FBF4F800F911FA21FB31F8C019D0186
:10384000040F151F261F371F1092B50489819A8116
:10385000AB81BC81081719072A073B0709F0BDCFC8
:10386000CD28CE28CF2869F48091A9049091AA048C
:10387000A091AB04B091AC0488169906AA06BB06C9
:1038800099F01092A5041092A6041092A704109229
:10389000A8048092A9049092AA04A092AB04B092CA
:1038A000AC048D810E9495176091B5046623C1F028
:1038B00081EB0F900F900F900F900F90DF91CF91B1
:1038C0001F910F91FF90EF90DF90CF90BF90AF903E
:1038D0009F908F907F906F905F904F900C946E1799
:1038E0000F900F900F900F900F90DF91CF911F913D
:1038F0000F91FF90EF90DF90CF90BF90AF909F908F
:103900008F907F906F905F904F9008958EE00E940F
:10391000D7072091210130E0DC010E9458332FEFBE
:1039200033E040E050E00E948B302093A1020895E4
:1039300080E10E94D70724E630E0DC010E94583382
:103940002FEF33E040E050E00E948B302093A00244
:103950000895DC01ED91FD918081ED91FD919081C3
:10396000ED91FD916C9163708E2309F064609F234B
:1039700009F06860E6ECFCE1E60FF11D65956595E0
:103980006D936D917D918D919D91099423C01AC085
:1039900012C016C010C01EC009C014C013C006C09B
:1039A00019C009C00DC007C00DC014C062507040DE
:1039B000804090400BC0615070408040904006C0F5
:1039C0006E5F01C06F5F7F4F8F4F9F4F9E938E93AF
:1039D0007E936E930895BF92CF92DF92EF92FF9203
:1039E0000F931F93CF93DF93EC01B62EC72E8D85D7
:1039F000811105C0CE010E94100981110EC01B86E5
:103A00001D861C8680E0DF91CF911F910F91FF9062
:103A1000EF90DF90CF90BF90089540E060EFCE012F
:103A20000E94BD0801E0E12CD12C11E0CE010E94E2
:103A30006A08F82ECE010E946A0891E0F91218C0B7
:103A4000813099F51134D8F2DB86D11002C081E0C3
:103A50008D878B81882399F22396EB2DFC2DCF0146
:103A6000089629912193E817F907D9F781E0CBCF80
:103A7000EE2DF0E0F8120FC08B851817A0F4DE01D0
:103A8000AE0FBF1F13968C91802379F4F12C19305F
:103A900008F41C87D12EEC0FFD1F8381902F909589
:103AA000892383830AC08113F1CFFE01EE0DF11D3E
:103AB0008381802B8383FF24F3946F2DCE010E949A
:103AC0008E081F5F000F11F4E39401E087E08E156C
:103AD00008F0ACCFB7CF4F925F926F927F928F92E8
:103AE0009F92AF92BF92CF92DF92EF92FF920F938D
:103AF0001F93CF93DF93CDB7DEB761970FB6F894DE
:103B0000DEBF0FBECDBF0E944708C0909B02D09081
:103B10009C02E0909D02F0909E026C197D098E0936
:103B20009F09693873418105910508F458C0809157
:103B30009A02811154C010922E0480913204909107
:103B400033040E94100940E06CEC809132049091A3
:103B500033040E94BD0840912C0464E48091320437
:103B6000909133040E94BD0880912E04882391F126
:103B7000E0912D04E9500EEE12E0E33038F4F0E06D
:103B8000EE0FFF1FEE5CFE4F0081118180912F042C
:103B9000882309F47EC080912C0481117AC00E9490
:103BA00047084B015C012801110F660877088091D6
:103BB0003204909133040E946A08813059F00E94C7
:103BC00047086419750986099709681579058A05F2
:103BD0009B0568F381E080932E0480939A020E94F3
:103BE00047086C197D098E099F0961347F41810561
:103BF0009105C0F180919A028823A1F1E0913204ED
:103C0000F091330413861586148612861186108669
:103C100017821682158214821382BE01665F7F4F5F
:103C200080913204909133040E94EB1C811138C0C2
:103C300060E070E08EEF92EC20E030E040E05FE387
:103C40000E94E7300E94CA3160939F020E94470899
:103C500060939B0270939C0280939D0290939E02BE
:103C600010929A0261960FB6F894DEBF0FBECDBFD8
:103C7000DF91CF911F910F91FF90EF90DF90CF9048
:103C8000BF90AF909F908F907F906F905F904F907C
:103C90000895B801110F880B990B0E9414089ACF50
:103CA00067E0CE010A960E94530899898913C0CF14
:103CB00080913204909133040E941009882309F402
:103CC000B7CFBE016F5F7F4FCE010A960E944809B1
:103CD000882309F4ADCF68E0CE0101960E94530815
:103CE00099858913A5CF6A8170E0762F6627770FB3
:103CF000770F770F298158E0259F90011124262BFB
:103D0000372B8A858031D1F4688570E08F81AB01D3
:103D1000481B5109CA019695982F88279795879532
:103D20000E943E33CB014097B90153E0660F771FE5
:103D30005A95E1F760789C01260F371F213854EE21
:103D400035070CF475CFB901330F880B990B0E941E
:103D5000FB3120E030E040E05CE30E94B0326CCF09
:103D60000F931F93CF93DF9380911303882359F010
:103D7000109273030E94E21010921303DF91CF910F
:103D80001F910F9108950E9447080091960210918B
:103D900097022091980230919902601B710B820B5F
:103DA000930B693E73408105910520F4012B022B92
:103DB000032B21F70E9447086093960270939702A5
:103DC000809398029093990288E60E94860560E0AD
:103DD0008CE194E00E9451108CE194E00E948510E7
:103DE000882391F010927A0380917A03882331F22C
:103DF000109275031092740310927303DF91CF91A8
:103E00001F910F910C94E21081E080937A0367E098
:103E100088E60E94900510922B0380932A03873036
:103E200018F38CE194E00E941110D82F982F9295EE
:103E30009770CAE08D2F8F709C9F800D1124809306
:103E400073038CE194E00E941110982F92959F705B
:103E50008F709C9F800D1124809374038CE194E0FB
:103E60000E941110982F929593708F709C9F800DD7
:103E70001124809375038CE194E00E941110982F17
:103E800092959F708F709C9F800D11248093760374
:103E90008CE194E00E941110982F92959F708F7082
:103EA0009C9F800D1124809377038CE194E00E9405
:103EB0001110982F92959F708F709C9F800D1124E8
:103EC000809378038CE194E00E941110982F9F70EA
:103ED000925E82958F708C9F900D11249093790340
:103EE000D7FF4CCF81CFCF93DF93EC018091B60405
:103EF0000E9486058D2F90E00E948010CE019927A8
:103F00000E9480108CE194E00E94851061E0809115
:103F1000B6040E94900510922B0380932A038823F5
:103F200039F08CE194E00E941110DF91CF91089557
:103F300080E0FBCFEF92FF920F931F93CF93DF931D
:103F40008B01040F151FEB017C01E61AF70AC7016C
:103F50008C0F9D1F0E94731F8993C017D107B9F75B
:103F6000DF91CF911F910F91FF90EF900895DF9215
:103F7000EF92FF920F931F93CF93DF9300D0CDB7B3
:103F8000DEB71A8219828091110129E0829FC00157
:103F9000112442E050E0BE016F5F7F4F45960E94C2
:103FA0009A1FF12CE12C10E000E089E0D82E8091DE
:103FB000110197018D9D200D311D1124C9014796D6
:103FC0000E94731F080F111D3FEFE31AF30A87E0E9
:103FD000E816F10461F70F5F1F4F89819A81081776
:103FE0001907B1F4809111018D9DC001112447E0A2
:103FF00050E069E071E047960E949A1F0F900F9081
:10400000DF91CF911F910F91FF90EF90DF90089576
:104010000E94F31AF3CFFC0101900020E9F73197D9
:10402000AF01481B590BBC018EE494E00C94DC05F5
:104030008F929F92AF92BF920F931F93CF93DF9374
:10404000CDB7DEB7A1970FB6F894DEBF0FBECDBFD8
:1040500019A2423008F44AE08E010F5D1F4F842EF2
:10406000912CB12CA12CA50194010E94B530E62F12
:10407000B901CA01EA30F4F4E05DD801EE938D0194
:10408000232B242B252B79F790E080E0109719F053
:10409000CD010E940B20A1960FB6F894DEBF0FBE93
:1040A000CDBFDF91CF911F910F91BF90AF909F90A7
:1040B0008F900895E95CE1CF682F70E090E080E098
:1040C0004AE00C941820CF93DF930E940B20EC0160
:1040D0008AE991E00E940B208C0F9D1FDF91CF9108
:1040E00008950C940B20CF93DF930E945C20EC0189
:1040F0008AE991E00E940B208C0F9D1FDF91CF91E8
:104100000895CF92DF92EF92FF92CF93DF936C01ED
:10411000990FEE08FF08F7FE1DC08DE20E94E40C27
:10412000EC0166277727CB016C197D098E099F0961
:104130004AE00E941820C80FD91F8AE991E00E9426
:104140000B208C0F9D1FDF91CF91FF90EF90DF90A0
:10415000CF9008954AE0C701B6010E941820EC01F3
:10416000ECCF4F925F926F927F928F929F92AF921D
:10417000BF92CF92DF92EF92FF920F931F93CF9354
:104180006B017C01742EAC019B010E941D338823BE
:1041900099F08DE991E0CF911F910F91FF90EF90F1
:1041A000DF90CF90BF90AF909F908F907F906F9057
:1041B0005F904F900C940B2046015701E894B7F89C
:1041C0002FEF3FEF4FE75FE7C501B4010E941D33BA
:1041D00081110DC02FEF3FEF4FE75FE7C501B4013D
:1041E0000E94533118161CF481EA91E0D4CF2FEFCE
:1041F0003FEF4FE75FE4C701B6010E94AB321816EC
:104200001CF485EA91E0C7CF2FEF3FEF4FE75FEC5B
:10421000C701B6010E94533187FDF3CF20E030E0A3
:10422000A901C701B6010E94533110E000E087FFE9
:1042300008C08DE20E94E40C8C01F7FAF094F7F8C4
:10424000F094C0E060E070E080E09FE37C1641F015
:1042500020E030E040E251E40E945831CF5FF6CFD9
:10426000A70196010E94E7302B013C010E94CA3150
:104270004B015C014AE00E9418207C01E00EF11E17
:10428000CC23B1F1C501B4010E94F9319B01AC010D
:10429000C301B2010E94E6304B015C018EE20E9434
:1042A000E40CE80EF91EC15018F120E030E040E2C5
:1042B00051E4C501B4010E94B0322B013C010E94BF
:1042C000CA314B01B12CA12C4AE0C501B4010E94B6
:1042D0001820E80EF91EC501B4010E94F9319B01B6
:1042E000AC01C301B2010E94E6304B015C01DBCF9F
:1042F000C701CF911F910F91FF90EF90DF90CF906A
:10430000BF90AF909F908F907F906F905F904F90F5
:1043100008952091540430915504C901079697FDE2
:10432000079623E0959587952A95E1F72091520409
:1043300030915304829FA001839F500D929F500D96
:10434000112470E060E080916D0490916E040C94F3
:104350003035EF92FF920F931F930E9489211092A4
:104360005B0410925A0410925D0410925C0481E088
:1043700090E0909361048093600490935F04809335
:104380005E0483E08093620480936304E0912503DC
:10439000E03108F071C0F0E0E053FE4D0C94523370
:1043A000E0219722AB22D122E522FC2217232B23E6
:1043B0005223722384239623A623B623CE23E623F7
:1043C00060910A0170910B0180910C0190910D0197
:1043D000603826E9720728E98207910528F022E073
:1043E00020936204209363040E94F93120E030E0BE
:1043F0004AE754E40E94583142E00E94B1208AE921
:1044000091E00E940B2081E080936204809363041A
:104410008091A102843620F489EA91E00E94712003
:104420006091A10270E090E080E00E94FB3120E00A
:1044300030E040E251E40E94583142E00E94B12055
:104440008BEA91E00E947120809124038823D1F0AF
:104450008DEA91E00E9471202091A00230E0EE24CC
:10446000E394F12C09E010E047E150E060E470E0F3
:104470008EE494E00E94DD0D1F910F91FF90EF906C
:104480000C94081588E292E00E94712080919F02AE
:104490000E945C2087EF0E94E40C82EB91E00E9476
:1044A000712080911B038823C9F188E292E00E9469
:1044B0007120809175038A3020F488E292E00E9496
:1044C0007120809175030E945C208091730380FFAE
:1044D00028C086EB91E00E947120809174038A309D
:1044E00020F489EA91E00E947120809174030E9477
:1044F0005C20809109018823B9F088EB91E00E944B
:104500007120809111018A3020F488E292E00E94AB
:104510007120809111010E945C20AECF84EB91E06C
:10452000C6CF88E292E0D7CF8BEB91E0E8CF8091C5
:1045300011010E94732081E08093620480936304E0
:10454000809125030E945C208EEB91E00E947120F7
:1045500080911201E0CFE0911001F0E0EE0FFF1F1B
:10456000E85CFE4F808191812AE0289FB001299F5D
:10457000700D112490E080E04AE00E9418208AE942
:1045800091E00E940B2081E0809362048093630499
:10459000809125030E945C2080ED91E00E947120B3
:1045A0006BCF80911F01909120010E94812081E0BA
:1045B0008093620480936304809125030E945C20B1
:1045C0008AED91E00E94632057CF809109018823F2
:1045D00081F08AEE91E00E94632081E08093620482
:1045E00080936304809125030E945C2082EF91E018
:1045F000E9CF8EEE91E0EFCF80910E0124E6829F0D
:10460000C00111240E94812081E080936204809384
:104610006304809125030E945C2083E092E00E9465
:10462000712080EF0E94E40C8FE092E0B7CF809180
:104630000F0124E6829FC00111240E94812081E0A5
:104640008093620480936304809125030E945C2020
:1046500083E192E0E4CF82E080936204809363047C
:1046600060911701709118018091190190911A01C0
:104670004AE00E9418208AE991E00E940B2081E024
:104680008093620480936304809125030E945C20E0
:104690008FE192E00E94712080EF0E94E40C87ED90
:1046A00091E07CCF82E08093620480936304609108
:1046B00013017091140180911501909116014AE047
:1046C0000E9418208AE991E00E940B2081E08093EB
:1046D000620480936304809125030E945C208AE237
:1046E00092E0D8CF80911B0190911C010E94812003
:1046F00081E08093620480936304809125030E948B
:104700005C2085E392E0C6CF80911D0190911E014F
:104710000E94812081E080936204809363048091F1
:1047200025030E945C2086E492E0B4CF80912101B1
:104730000E94732081E080936204809363048091DF
:1047400025030E945C2082E592E028CF809112012F
:104750000E94732081E080936204809363048091BF
:1047600025030E945C208DE592E018CF80917503AF
:104770008A3020F489EA91E00E94712080917503CB
:104780000E94732081E0809362048093630480918F
:1047900025030E945C208DE692E000CF8091740397
:1047A0008A3020F489EA91E00E947120809174039C
:1047B0000E94732081E0809362048093630480915F
:1047C00025030E945C2084E792E0E8CE80912201DC
:1047D000882381F08DE792E00E94632081E080933E
:1047E000620480936304809125030E945C2084E826
:1047F00092E0E8CE81E892E0EFCF0E942B351F9245
:104800000F920FB60F9211242F933F934F935F9304
:104810006F937F938F939F93AF93BF93EF93FF9388
:104820008FE793E00E945A06FF91EF91BF91AF91FD
:104830009F918F917F916F915F914F913F912F91B8
:104840000F900FBE0F901F9018951F920F920FB6EA
:104850000F9211242F938F939F93EF93FF93E091E7
:104860008F03F09190038081E0919503F09196037E
:1048700082FD1BC09081809198038F5F8F73209180
:104880009903821741F0E0919803F0E0E158FC4F62
:10489000958F80939803FF91EF919F918F912F9126
:1048A0000F900FBE0F901F9018958081F4CF1F922C
:1048B0000F920FB60F9211242F933F938F939F93D4
:1048C000AF93BF938091060390910703A0910803D3
:1048D000B09109033091050323E0230F2D3758F5DC
:1048E0000196A11DB11D20930503809306039093AB
:1048F0000703A0930803B093090380910A039091E2
:104900000B03A0910C03B0910D030196A11DB11DE5
:1049100080930A0390930B03A0930C03B0930D03B1
:10492000BF91AF919F918F913F912F910F900FBEAB
:104930000F901F90189526E8230F0296A11DB11D18
:10494000D2CF1F920F920FB60F9211242F933F9345
:104950004F935F936F937F938F939F93AF93BF9387
:10496000EF93FF938091B900887F803609F44AC0A5
:10497000F0F5883209F4A7C018F5803109F49BC01E
:10498000B8F4882309F4F9C0883009F494C0FF9181
:10499000EF91BF91AF919F918F917F916F915F91B7
:1049A0004F913F912F910F900FBE0F901F90189530
:1049B000883109F488C0803251F78093700314C0A5
:1049C000803409F49DC040F48033B9F38833F9F69C
:1049D0008093700385ECB0C0803509F485C08835BC
:1049E00009F496C0883499F60E94D10FD0CF883947
:1049F00009F48CC038F5883729F050F4883611F066
:104A0000803729F683E0809372031092040357C025
:104A1000883809F47BC0803919F0803809F0B7CFA5
:104A200080910403803208F071C0E091040381E0BA
:104A30008E0F809304038091BB00F0E0EC51FD4F9A
:104A400080833DC0803B39F0E0F4803A09F479C0BE
:104A5000883A09F09CCF84E0809372031092E302BD
:104A60001092E202E0912803F091290309958091C8
:104A7000E20281110FC081E08093E2021092C20233
:104A800009C0803C09F4A6CF883C09F4A3CF883B39
:104A900009F07DCFE091E30281E08E0F8093E30285
:104AA000F0E0EE53FD4F80818093BB009091E302D4
:104AB0008091E20229C080916D038093BB0085EC58
:104AC0008093BC0064CF90916F0380916E03981720
:104AD00058F5E0916F0381E08E0F80936F03F0E053
:104AE000E45BFC4F8081E9CFE0916F0381E08E0FA2
:104AF00080936F038091BB00F0E0E45BFC4F808308
:104B000090916F0380916E039817C8F285E8D8CF13
:104B1000E0916F0381E08E0F80936F038091BB0063
:104B2000F0E0E45BFC4F80838091710381115CCFE6
:104B300081E080936C0384EA8093BC00109272033E
:104B400026CF85EC8093BC00109272038091040301
:104B5000803230F4E0910403F0E0EC51FD4F10821C
:104B60006091040370E0E0912603F091270384EE46
:104B700092E00995109204030ACF1092700334CF8B
:104B80001F920F920FB60F9211242F933F934F93C2
:104B90005F936F937F938F939F93AF93BF93EF93A5
:104BA000FF9380912A0490912B040E94A91CFF91ED
:104BB000EF91BF91AF919F918F917F916F915F9195
:104BC0004F913F912F910F900FBE0F901F9018950E
:104BD0001F920F920FB60F9211242F933F934F9372
:104BE0005F936F937F938F939F93AF93BF93EF9355
:104BF000FF9380912804909129040E94A91CFF91A1
:104C0000EF91BF91AF919F918F917F916F915F9144
:104C10004F913F912F910F900FBE0F901F901895BD
:104C2000CF92DF92EF92FF92CF93DF9310928203A5
:104C30001092810398EEC92E93E0D92EE12CF12C2D
:104C4000C0928303D0928403E0928503F09286039E
:104C50008EE491E09093800380937F0385EC90E055
:104C600090938C0380938B0384EC90E090938E035D
:104C700080938D0380EC90E09093900380938F035A
:104C800081EC90E0909392038093910382EC90E00A
:104C9000909394038093930386EC90E09093960313
:104CA00080939503109298031092990310929A039F
:104CB00010929B030E94690710921F0410921E0419
:104CC000C0922004D0922104E0922204F0922304A6
:104CD00080E691E090931D0480931C0480E580930E
:104CE000B6041092960410929504109298041092B3
:104CF000970410929A041092990410929B041092B7
:104D00009C0410929D0480912F0190913001A091FC
:104D1000310180939E0490939F04A093A00410926D
:104D2000A1041092A2041092A3041092A404109261
:104D3000A5041092A6041092A7041092A804109241
:104D4000A9041092AA041092AB041092AC0480E85B
:104D500092EBA6EEBEE08093AD049093AE04A093D8
:104D6000AF04B093B00462E082E00E949B0762E06F
:104D700083E00E949B07E1EAFAE0E491F0E0EE0FA5
:104D8000FF1FEB56F54FA591B491B0938A04A09301
:104D90008904E3E8FAE0449140938D04E2EAFAE002
:104DA000E491F0E0EE0FFF1FEB56F54FC591D49163
:104DB000D0938C04C0938B04E4E8FAE0E491E09390
:104DC0008E0410929004109291041092920410920A
:104DD00093042BE33FE1C9010197F1F79C91842FE4
:104DE000892391E009F490E08881E82309F092603A
:104DF00029E834E090938F04309329042093280409
:104E0000809169008C7F816080936900E89AC1E09D
:104E1000C093940430932B0420932A04809169005A
:104E2000837F846080936900E99A82E08093940490
:104E3000109251041092500420E830E03093530453
:104E40002093520480E290E09093550480935404A0
:104E50003093570420935604909359048093580438
:104E60001092640410925B0410925A0410925D0434
:104E700010925C04C0936304C09362048FEF9FEFB1
:104E8000909361048093600490935F0480935E0428
:104E9000C09365041092660410926804109267042F
:104EA00082E791E090934F0480934E048CE194E06C
:104EB00090936C0480936B0410926E0410926D04B6
:104EC0008FEF8093720480937304809374048093B3
:104ED000750484E08093760480E5809383041092C7
:104EE000840410926A041092690460E08FE00E94CA
:104EF0009B07E0E9FAE0E491E0934004EEEAFAE08F
:104F0000E491F0E0EE0FFF1FEB56F54F8591949181
:104F1000909342048093410410924B0410924D04EC
:104F200010924C0410924A041092490410924804C2
:104F300010924704109246041092450410924404C3
:104F40001092430480E494E09093330480933204FD
:104F5000109230041092310410922C0489E0809356
:104F60002D04C0932E04C0932F0410923F0410927E
:104F70003E04DF91CF91FF90EF90DF90CF900895A6
:104F8000CF93DF93CDB7DEB760970FB6F894DEBF4F
:104F90000FBECDBF789484B5826084BD84B5816036
:104FA00084BD85B5826085BD85B5816085BD8091F4
:104FB0006E00816080936E0010928100809181006C
:104FC0008260809381008091810081608093810064
:104FD000809180008160809380008091B100846026
:104FE0008093B1008091B00081608093B000809187
:104FF0007A00846080937A0080917A008260809346
:105000007A0080917A00816080937A0080917A00A2
:10501000806880937A001092C100E0918F03F09134
:10502000900382E08083E0918F03F09190031082DF
:10503000E0918B03F0918C031082E0918D03F0914D
:105040008E0380E1808310929703E0919303F091A7
:10505000940386E08083E0919103F0919203808134
:1050600080618083E0919103F09192038081886058
:105070008083E0919103F091920380818068808326
:10508000E0919103F091920380818F7D808360E0B5
:1050900084E00E949B0760E080E10E949B0761E042
:1050A00084E00E943B0783E08093000180916D04BF
:1050B00090916E04892B11F10E9489212091540452
:1050C000309155048091520490915304213231055E
:1050D0000CF0B4C0B9016052710977FF02C06F5F74
:1050E0007F4F759567958357910997FD019600E26B
:1050F00010E023E730E04CED55E0B3C020915404BC
:1051000030915504C901079697FD0796B3E0959530
:105110008795BA95E1F72091520430915304AC0180
:10512000429FC001439F900D529F900D11240E94F9
:10513000063490936E0480936D04892B09F0BCCFE4
:105140000E9489210E940815E0913204F0913304F5
:10515000138615861486128611861086178216828B
:10516000158214821382109230041092310401E0EF
:10517000BE016F5F7F4F80913204909133040E9493
:10518000EB1C882309F431C267E0CE0101960E942E
:10519000530898858913ECCF80912C04811128C085
:1051A00080913204909133040E941009BE016F5F18
:1051B0007F4F80913204909133040E94F10840E0C7
:1051C00064EB80913204909133040E94BD08809179
:1051D0003204909133040E946A08182F809132049F
:1051E000909133040E941009111102C000932C0405
:1051F00010912D048981803109F47AC7CE0101967E
:105200000E949409811708F0DFC180912D048093DA
:105210002D04809130048F5F80933004898188321F
:1052200039F008F0DBC1803119F0823209F0A0CFEB
:10523000809131048F5F809331049ACFB90160541B
:10524000710977FF02C06F5F7F4F75956795825533
:10525000910997FD019600E410E022E530E04CEB67
:1052600057E0959587950E94C30E82E08093700465
:1052700080916B0490916C04892B09F49AC08CE3A3
:1052800080936F040E9469078091760487FD1EC099
:1052900061E00E949B0761E0809176040E943B07D9
:1052A00061E070E080E090E00E94140860E080918E
:1052B00076040E943B076AE070E080E090E00E9484
:1052C000140861E0809176040E943B0780916B0492
:1052D00090916C04892B09F42BC18CE08093B80069
:1052E00064E08EEC95E00E940514609154046150D6
:1052F0008EE494E00E94A81464E08AEC95E00E9499
:1053000005148091700460E1813009F064E18EE45D
:1053100094E00E94A81464E086EC95E00E940514D5
:1053200080915204909153048038910509F02BC16B
:1053300080915404909155048032910509F00FC179
:1053400064E082EC95E00E94051469ED8EE494E03F
:105350000E94A8148091700462E2813009F061EF2C
:105360008EE494E00E94A81466E086EB95E00E942B
:10537000051480916B0490916C04892B09F41AC177
:1053800020918504309186044091870450918804CF
:1053900060E074E284EF90E00E94B5302051310962
:1053A0004109510956954795379527952093B8009F
:1053B000C7CE61E0809174040E949B0761E08091F8
:1053C00075040E949B0780917404082E000C990BB1
:1053D000FC01E156F54FE491F0E0EE0FFF1FEE52B5
:1053E000FA4F2591349130937C0420937B04FC0187
:1053F000EF57F54FE491E093810480917504082EF6
:10540000000C990BFC01E156F54FE491F0E0EE0F32
:10541000FF1FEE52FA4FA591B491B0937E04A09372
:105420007D04FC01EF57F54FE491E09382048C91E9
:10543000E82BEC938091690490916A04892B09F41C
:1054400034C01FB7F89480910E03811127C0E9EA98
:10545000FAE08491EBE8FAE09491E82FF0E0EE0FA7
:10546000FF1FE455FA4FA591B491EC91E92321F483
:1054700061E08AE00E943B0761E08AE00E949B07AE
:105480008CB580618CBD8CB580648CBD61E08DE095
:105490000E949B0761E08BE00E949B0780910E03B6
:1054A0008F5F80930E031FBFEFCE61E08091720487
:1054B0000E949B0761E0809173040E949B0780918A
:1054C0007204082E000C990BFC01E156F54FE49193
:1054D000F0E0EE0FFF1FEE52FA4F2591349130931A
:1054E000780420937704FC01EF57F54FE491E093A3
:1054F0007F0480917304082E000C990BFC01E15687
:10550000F54FE491F0E0EE0FFF1FEE52FA4FA59138
:10551000B491B0937A04A0937904FC01EF57F54F4E
:10552000E491E09380048C91E095E823EC93ACCE79
:105530008091690490916A04892B31F080918304F1
:10554000909184040E940515E0917D04F0917E0401
:10555000908180918204809589238083C1CE80349C
:10556000910509F0F2CE63E08FEB95E00E940514FF
:10557000809170046FE9813009F06FEC8EE494E063
:105580000E94A814E2CE8036910509F0DECE80910B
:10559000540490915504409709F0D7CE63E08CEB0A
:1055A00095E00E9405148091700460E1813031F330
:1055B0006FEAE4CFE0917D04F0917E0480819091C8
:1055C0008204892B8083BCCD8981803111F48CE0E9
:1055D0001ECECE0101960E94940919CE8B3309F498
:1055E00027CE823409F0C4CD23CE1A82198242E03C
:1055F00050E0BE016F5F7F4F90E080E00E949A1FF5
:1056000072E0E72EF12C10E000E0C7010E94731F4A
:10561000080F111D5FEFE51AF50A85E1E816F104A0
:10562000A1F70F5F1F4F89819A810817190709F0A9
:10563000CFC043E150E060E171E082E090E00E9481
:105640009A1F0E94B71F10929E0410929F041092FE
:10565000A00460E880E10E946E1760E881E10E948A
:105660006E1760E882E10E946E1780E896E3AEEB69
:10567000B6E28093250190932601A0932701B09371
:10568000280162E987EB0E946E170E944E1B0E9460
:10569000681B0E94861C0E94981C0E946B1D0E9421
:1056A000B01E0E94892110925B0410925A0410923D
:1056B0005D0410925C0481E090E09093610480931B
:1056C000600490935F0480935E0483E0809362049F
:1056D0008093630481E091E00E9463200E9408159A
:1056E00068EE73E080E090E00E9414080E94A92117
:1056F00062E3262E312C11E002E084E00E941207C2
:1057000020910801892B09F089C4222361F01092AD
:1057100008010E94470860930F0370931003809361
:1057200011039093120380919404823008F067C0B3
:10573000F89489E894E00E94A91C6091900470910B
:1057400091048091920490919304789424E030E045
:1057500040E050E00E948B3069017A018091220183
:10576000882341F0F094E094D094C094C11CD11CE3
:10577000E11CF11C8090150390901603A090170374
:10578000B09018038C149D04AE04BF0409F4DCC06F
:10579000E09125039FEF9E0F943010F410931403B3
:1057A000E03108F0BBC0F0E0E852F44D0C94523305
:1057B000012C5A2D7A2D982DDA2DE02D042E282E2D
:1057C000952E022F312F792F9E2FBC2FDB2FF72FF5
:1057D0000E94F31A36CF109225033FC48F5F8530A5
:1057E00059F08093250380912503803108F44EC43D
:1057F00085E0809325034AC410922503F4CFF894E2
:105800009CCF40900A0150900B0160900C01709069
:105810000D01A0910F01B0E020EA36E841E050E030
:105820000E94AA306D877E878F87988BA0910E018A
:10583000B0E00E94AA3069877A878B879C878C1496
:105840009D04AE04BF040CF003C12D853E854F8539
:105850005889241535054605570560F1E09110017A
:10586000F0E0EE0FFF1FE85CFE4F808191812AE09F
:10587000289F4001299F900C1124B12CA12CC30119
:10588000B201A50194010E94B530480C591C6A1C54
:105890007B1C611571058105910521F0461A570A97
:1058A000680A790A40920A0150920B0160920C0139
:1058B00070920D0180910A0190910B01A0910C0151
:1058C000B0910D0129853A854B855C858217930738
:1058D000A407B50740F420930A0130930B014093CD
:1058E0000C0150930D0180910A0190910B01A09140
:1058F0000C01B0910D012D853E854F8558892817E3
:1059000039074A075B0740F420930A0130930B01E3
:1059100040930C0150930D010E94681B0E944708A0
:1059200060931C0370931D0380931E0390931F03C9
:1059300010931B030E94A921C0921503D092160355
:10594000E0921703F092180381E10E941207209160
:105950002403892B09F4A7C3211108C01093240341
:1059600010921A03109219030E94681B809125035C
:10597000811161C080912403882309F448C344E65F
:1059800050E050932401409323010E944708C090A7
:105990002003D0902103E0902203F0902303AB0179
:1059A000BC014C195D096E097F098091230190911A
:1059B0002401092E000CAA0BBB0B84179507A60720
:1059C000B707C8F50E944708C0901C03D0901D037C
:1059D000E0901E03F0901F036C197D098E099F094A
:1059E000613177428105910590F080911B038823F6
:1059F00071F00E94470860931C0370931D0380930D
:105A00001E0390931F0310921B030E94F31A0E941F
:105A1000861C0E94981C0E946B1D0E94B01E0E9452
:105A2000A9210E944708609320037093210380936B
:105A300022039093230320E030E0232B09F45DCE72
:105A40000E944606882309F456CE0E94000053CED9
:105A5000C814D904EA04FB040CF02CCF89859A857C
:105A6000AB85BC85481659066A067B0608F422CF2A
:105A7000E0911001F0E0EE0FFF1FE85CFE4F808127
:105A800091812AE0289F4001299F900C1124B12C7C
:105A9000A12CC301B201A50194010E94B53061158A
:105AA00071058105910509F0F9CE481859086A0871
:105AB0007B08F8CE80911101909112018C149D0405
:105AC000AE04BF0474F4891718F48F5F809311013A
:105AD00080911101981710F4909311010E94B71F43
